S0110000436C617564655F31312E7372656304
S11300000C9434000C9451000C9451000C94510045
S11300100C9451000C9451000C9451000C94510018
S11300200C9451000C9451000C9451000C94510008
S11300300C9451000C9451000C9451000C945100F8
S11300400C94A3040C9451000C9451000C94510092
S11300500C9451000C9451000C9451000C945100D8
S11300600C9451000C94510011241FBECFEFD8E022
S1130070DEBFCDBF11E0A0E0B1E0EEE3F3E102C0EA
S113008005900D92AA32B107D9F721E0AAE2B1E0B6
S113009001C01D92A434B207E1F70E94C8040C9475
S11300A09D090C94000014BC83E085BD81E080931D
S11300B06E0008953FB7F8948091400190914101FA
S11300C0A0914201B091430126B5A89B05C02F3FE2
S11300D019F00196A11DB11D3FBFBA2FA92F982F6A
S11300E08827820F911DA11DB11DBC01CD01660F92
S11300F0771F881F991F660F771F881F991F089500
S113010082E8809380008AE1809381008FE39CE9F8
S1130110909387008093860088EB9BE090938900FE
S11301208093880008958D3208F48DE2883808F0B1
S113013087E8282F30E02D523109A8EEB3E00E9461
S113014083092AE530E040E050E00E94420928514A
S11301503C4F220F331F3093890020938800089569
S113016083EA8093B00084E08093B1001092B300DE
S11301701092B40008951092B3001092B40081E07C
S11301808093280108958AB18C618AB98AB18F75E8
S11301908AB984B18B6084B984B18B7F84B987B107
S11301A08E7F87B90895BF92CF92DF92EF92FF922C
S11301B00F931F93CF93DF93EC01B62E0E945A0046
S11301C06B017C010DC00E945A00DC01CB018C192B
S11301D09D09AE09BF0989329342A105B10570F5A5
S11301E088810B2D90E00B2C02C0959587950A947D
S11301F0E2F780FFE8CF0E945A006B017C010DC03A
S11302000E945A00DC01CB018C199D09AE09BF097B
S113021089329342A105B105A8F4888190E0002EAB
S113022002C0959587950A94E2F780FDE9CF0E9474
S11302305A006C197D098E099F0907C060E070E0BF
S1130240CB0103C060E070E0CB01DF91CF911F913F
S11302500F91FF90EF90DF90CF90BF900895EF92B1
S1130260FF920F931F93621773078407950754F047
S1130270E616F7060807190754F4AE2DFF2DE02FF4
S1130280912F08C0A22FF32FE42F952F03C0A62F80
S1130290F72FE82F6A2F7F2F8E2F1F910F91FF903A
S11302A0EF9008954F925F926F927F92AF92BF92B8
S11302B0CF92DF92EF92FF920F931F93CF93DF932E
S11302C0CDB7DEB729013A019B01AC0124193509E8
S11302D04609570989899A89AB89BC89BC01CD0132
S11302E06A197B098C099D090E943209A8019701AA
S11302F024193509460957090E946409C601B50144
S1130300620F731F841F951FDF91CF911F910F916F
S1130310FF90EF90DF90CF90BF90AF907F906F9061
S11303205F904F9008958F929F92AF92BF92CF9219
S1130330DF92EF92FF920F931F93CF93DF93A62E3A
S1130340B72EC82ED92E822E932ED42FC52F0E94BD
S1130350610788238CF02E2D3F2D402F512F6A2DBD
S11303607B2D8C2D9D2D0E94C008181644F4AE2CB4
S1130370BF2CD02FC12F05C0A82CB92C02C0DC2D56
S1130380CD2D6A2D7B2D8D2F9C2FDF91CF911F9129
S11303900F91FF90EF90DF90CF90BF90AF909F9020
S11303A08F900895FC011486158616861786108A88
S11303B0118A128A138A08954F925F926F927F92E4
S11303C08F929F92AF92BF92CF92DF92EF92FF9261
S11303D00F931F93CF93DF93EC014A015B01280134
S11303E0390120E030E0A901C301B2010E94610794
S11303F0181654F00F2EFFE64F2EF2E15F2EF3E8AD
S11304006F2EFAE37F2EF02DA5019401C301B201F2
S11304100E94C5082C853D854E855F850E94F506A2
S11304206C877D878E879F87E12CF12C06E113E48E
S113043020E030E046E153EC0E9493016B017C0123
S11304406C877D878E879F87288939894A895B894C
S1130450C501B4010E94F406A30192010E9466073B
S11304602B013C01888A998AAA8ABB8A288139810E
S11304704A815B81C501B4010E94C5084B015C013E
S11304802C813D814E815F81C701B6010E94C50860
S11304909B01AC01C501B4010E94F5066B017C010E
S11304A0288539854A855B85C301B2010E94C50848
S11304B09B01AC01C701B6010E94F506DF91CF9103
S11304C01F910F91FF90EF90DF90CF90BF90AF906E
S11304D09F908F907F906F905F904F900895CF92F0
S11304E0DF92EF92FF9220913B0121110CC06093A7
S11304F03C0170933D0180933E0190933F0181E064
S113050080933B0124C02AE939E949E95EE30E946A
S1130510C5086B017C0123E333E343E35FE36091AC
S11305203C0170913D0180913E0190913F010E94F8
S1130530C5089B01AC01C701B6010E94F506609392
S11305403C0170933D0180933E0190933F01609183
S11305503C0170913D0180913E0190913F01FF90DB
S1130560EF90DF90CF90089584E191E00E94D20152
S113057080E091E00E94D20110923B010895109214
S11305802A0108952F923F924F925F926F927F9229
S11305908F929F92AF92BF92CF92DF92EF92FF928F
S11305A00F931F93CF93DF93CDB7DEB72C970FB67E
S11305B0F894DEBF0FBECDBFE0912A01E11124C043
S11305C060933701709338018093390190933A0115
S11305D02093330130933401409335015093360115
S11305E0E0922F01F0923001009331011093320117
S11305F0A0922B01B0922C01C0922D01D0922E0119
S113060081E080932A01BDC02090370130903801E9
S11306104090390150903A013B014C016218730833
S113062084089508A0E46A16A2E47A06AFE08A0674
S1130630910408F4A5C02090330130903401409017
S113064035015090360139014A0162187308840853
S1130650950823013401772044F4709460945094F5
S11306604094411C511C611C711C49825A826B824A
S11306707C8220902F0130903001409031015090C5
S113068032014201310117012801261837084808B0
S1130690590829863A864B865C8655205CF4662484
S11306A077244301621873088408950869867A865A
S11306B08B869C8629803A804B805C8069847A840E
S11306C08B849C84260C371C481C591C29823A8232
S11306D04B825C8220902B0130902C0140902D01A4
S11306E050902E01420131011501260126183708C8
S11306F04808590829863A864B865C8655205CF45E
S1130700662477244301621873088408950869866F
S11307107A868B869C8629843A844B845C8469809F
S11307207A808B809C80260C371C481C591C609353
S11307303701709338018093390190933A012093E3
S11307403301309334014093350150933601E092E4
S11307502F01F09230010093310110933201A092E5
S11307602B01B0922C01C0922D01D0922E01E1E018
S1130770D201C1010397A105B1051CF0E0E001C05D
S1130780E0E08E2F2C960FB6F894DEBF0FBECDBFDF
S1130790DF91CF911F910F91FF90EF90DF90CF9059
S11307A0BF90AF909F908F907F906F905F904F908D
S11307B03F902F90089590912801992391F08823D8
S11307C081F01092B3009FEF9093B4002FEF3BEDB4
S11307D095E0215030409040E1F700C000001092B5
S11307E028011092B3008093B400089590912801D9
S11307F0992391F0882381F01092B4009FEF909395
S1130800B3002FEF3BED95E0215030409040E1F7ED
S113081000C00000109228011092B4008093B3002D
S11308200895FC01208181E090E002C0880F991FA7
S11308306A95E2F7982F9095292320832AE02A9538
S1130840F1F700C02081822B808385E38A95F1F73C
S1130850000080819823908308951F93CF93DF93A2
S1130860EA01122F0E941104612FCE010E94D300CD
S1130870611571058105910581F02AE330E040E0BE
S113088050E00E944209273931054105510554F4CD
S1130890622F732F842F952F09C066E970E080E0E2
S11308A090E004C066E970E080E090E0DF91CF91D1
S11308B01F910895CF92DF92EF92FF92CF930E94FF
S11308C0BB0084E60E94F6030E945A006B017C017F
S11308D0C0E014C0CC2311F087E801C08DE20E946F
S11308E093002FEF83EC99E0215080409040E1F792
S11308F000C0000081E0C11180E0C82F0E945A00AE
S1130900DC01CB018C199D09AE09BF09803C9742DB
S1130910A940B105F8F20E94BB008FEF91EE24E0EC
S1130920815090402040E1F700C000008AE50E9419
S113093093000E94B4020E94BF02CF91FF90EF90F7
S1130940DF90CF9008951F920F920FB60F9211244B
S11309508F939F93AF93BF938091400190914101F6
S1130960A0914201B09143010196A11DB11D809354
S1130970400190934101A0934201B0934301BF9180
S1130980AF919F918F910F900FBE0F901F9018956C
S1130990CF93DF93CDB7DEB765970FB6F894DEBF7C
S11309A00FBECDBF0E94C3000E9453000E9480006E
S11309B00E94B0000E94BB008AE50E9493007894D4
S11309C009C02FEF39EF40E0215030404040E1F7BB
S11309D000C00000309BF5CF0E945A0069837A83DF
S11309E08B839C830E94BF021D861E861F86188AE5
S11309F050E05D8B09C089829A82AB82BC8204C0BC
S1130A0089829A82AB82BC8230991DC00E94BB004D
S1130A108AE50E9493000E94B4020E94BF0209C0AA
S1130A208FEF99EFA0E081509040A040E1F700C023
S1130A300000309BF5CF0E945A0069837A838B8330
S1130A409C831D8AE1CF22E043E250E062E08BE226
S1130A5090E00E942D046D837E838F8398878FE3BB
S1130A609CE90197F1F700C0000027E049E250E05B
S1130A7064E08BE290E00E942D042B013C01AFE383
S1130A80BCE91197F1F700C0000025E049E250E00D
S1130A9060E085E290E00E942D0469877A878B8765
S1130AA09C878FE39CE90197F1F700C0000099E16E
S1130AB0491651046104710454F40E945A040E94BA
S1130AC05A0069837A838B839C831D8A9DCFAD8969
S1130AD0A1110CC10E945A00A984BA84CB84DC847D
S1130AE0830172012D813E814F8158850E94C2028B
S1130AF0882349F00E945A040E945A0069837A8329
S1130B008B839C8381CFBCE34B1651046104710435
S1130B106CF40E945A006D877E878F87988B0E94A1
S1130B20B4020E94BF0221E02D8B6ECF0E945A00B6
S1130B30698B7A8B8B8B9C8B29813A814B815C816D
S1130B40621B730B840B950B0E940E0820E034E2A9
S1130B5044E759E40E9466074B015C0169857A8584
S1130B608B859C852D813E814F815885621B730B3B
S1130B70840B950B16E9E12EF12C00E010E02AE637
S1130B803FEF4FEF5FEF0E942F010E9410080E9479
S1130B906F02AB01BC019501840184E191E00E94E4
S1130BA0DC014B015C010E94D807CB01865A9F4FA0
S1130BB08D32910514F48DE290E08838910514F09B
S1130BC087E890E00E94930020E030E0A901C5018D
S1130BD0B4010E946107882334F4C501B40190581C
S1130BE00E94D80704C0C501B4010E94D8071DE2C1
S1130BF0E12EF12C00E010E020E030E0A9010E9499
S1130C002F011F921F921F9222E32F93A12CB12C2C
S1130C10650120E030E0A9010E9452010F900F907D
S1130C200F900F900F2EF4E68F2E912CA12CB12C47
S1130C30F02DA5019401261B370B480B590B298372
S1130C403A834B835C8330E5431651046104710499
S1130C5034F510E5E12EF12C00E010E029E130E05C
S1130C6040E050E0C301B2010E942F011F921F9285
S1130C701F9224E62F930F2EF6E4AF2EB12CC12C35
S1130C80D12CF02D29E130E040E050E00E945201E7
S1130C900F900F900F900F90382F292F04C064E607
S1130CA070E030E020E0862F972FA32FB22F298108
S1130CB03A814B815C81281739074A075B0714F492
S1130CC0DA01C90186349105A105B10524F486E44D
S1130CD090E0A0E0B0E00E94DB0389899A89AB89A7
S1130CE0BC8989839A83AB83BC838ECE0E945A00CD
S1130CF04B015C0129813A814B815C81621B730B3E
S1130D00840B950B0E940E0820E034E244E759E47A
S1130D100E94660769837A838B839C8369857A85BD
S1130D208B859C852D813E814F815885621B730B79
S1130D30840B950B16E9E12EF12C00E010E02AE675
S1130D403FEF4FEF5FEF0E942F010E941008AB01AD
S1130D50BC0109811A812B813C8180E091E00E94D1
S1130D60DC010E94D807CB01865A9F4F8D32910532
S1130D7014F48DE290E08838910514F087E890E04F
S1130D800E94930080E50E94DB030E945A002D8597
S1130D903E854F855889621B730B840B950B28EE97
S1130DA033E040E050E00E944209283582E03807F1
S1130DB04105510508F41FCE9CE349165104610412
S1130DC0710434F4283735404105510508F418CE30
S1130DD00E94B4020E94BF020E945A0069837A836F
S1130DE08B839C831D8A10CE5058BB27AA270E9450
S1130DF00C070C9486080E94780838F00E947F083B
S1130E0020F039F49F3F19F426F40C9475080EF47D
S1130E10E095E7FB0C946F08E92F0E94970858F3BC
S1130E20BA17620773078407950720F079F4A6F5CB
S1130E300C94B9080EF4E0950B2EBA2FA02D0B01DB
S1130E40B90190010C01CA01A0011124FF27591B0B
S1130E5099F0593F50F4503E68F11A16F040A22F11
S1130E60232F342F4427585FF3CF46953795279582
S1130E70A795F0405395C9F77EF41F16BA0B620B81
S1130E80730B840BBAF09150A1F0FF0FBB1F661FC8
S1130E90771F881FC2F70EC0BA0F621F731F841F0B
S1130EA048F4879577956795B795F7959E3F08F031
S1130EB0B0CF9395880F08F09927EE0F97958795F3
S1130EC008950E944B0808F481E008950E947A076F
S1130ED00C9486080E947F0858F00E94780840F01D
S1130EE029F45F3F29F00C946F0851110C94BA084F
S1130EF00C9475080E94970868F39923B1F355235D
S1130F0091F3951B550BBB27AA2762177307840718
S1130F1038F09F5F5F4F220F331F441FAA1FA9F3AE
S1130F2035D00E2E3AF0E0E832D091505040E6959C
S1130F30001CCAF72BD0FE2F29D0660F771F881FFD
S1130F40BB1F261737074807AB07B0E809F0BB0BF0
S1130F50802DBF01FF2793585F4F3AF09E3F510504
S1130F6078F00C946F080C94BA085F3FE4F3983E51
S1130F70D4F3869577956795B795F7959F5FC9F7ED
S1130F80880F911D9695879597F90895E1E0660F6E
S1130F90771F881FBB1F621773078407BA0720F0E7
S1130FA0621B730B840BBA0BEE1F88F7E095089550
S1130FB00E94DF076894B1110C94BA0808950E9446
S1130FC09F0888F09F5798F0B92F9927B751B0F030
S1130FD0E1F0660F771F881F991F1AF0BA95C9F7B9
S1130FE014C0B13091F00E94B908B1E008950C9496
S1130FF0B908672F782F8827B85F39F0B93FCCF349
S1131000869577956795B395D9F73EF49095809535
S1131010709561957F4F8F4F9F4F0895E89409C055
S113102097FB3EF490958095709561957F4F8F4F17
S11310309F4F9923A9F0F92F96E9BB279395F6952D
S1131040879577956795B795F111F8CFFAF4BB0FAB
S113105011F460FF1BC06F5F7F4F8F4F9F4F16C00F
S1131060882311F096E911C0772321F09EE8872F99
S1131070762F05C0662371F096E8862F70E060E055
S11310802AF09A95660F771F881FDAF7880F9695CE
S1131090879597F90895990F0008550FAA0BE0E872
S11310A0FEEF16161706E807F907C0F01216130626
S11310B0E407F50798F0621B730B840B950B39F466
S11310C00A2661F0232B242B252B21F408950A26CC
S11310D009F4A140A6958FEF811D811D089597F90C
S11310E09F6780E870E060E008959FEF80EC0895CA
S11310F000240A94161617061806090608950024F3
S11311000A9412161306140605060895092E03946C
S1131110000C11F4882352F0BB0F40F4BF2B11F4E0
S113112060FF04C06F5F7F4F8F4F9F4F089557FD3F
S11311309058440F551F59F05F3F71F04795880F41
S113114097FB991F61F09F3F79F0879508951216D8
S113115013061406551FF2CF4695F1DF08C0161684
S113116017061806991FF1CF869571056105089435
S11311700895E894BB2766277727CB0197F908954C
S11311800E944B0808F48FEF08950E94D8080C942D
S113119086080E94780838F00E947F0820F0952382
S11311A011F00C946F080C94750811240C94BA086F
S11311B00E94970870F3959FC1F3950F50E0551F57
S11311C0629FF001729FBB27F00DB11D639FAA2798
S11311D0F00DB11DAA1F649F6627B00DA11D661FE7
S11311E0829F2227B00DA11D621F739FB00DA11D08
S11311F0621F839FA00D611D221F749F3327A00DC2
S1131200611D231F849F600D211D822F762F6A2F5D
S113121011249F5750409AF0F1F088234AF0EE0FC2
S1131220FF1FBB1F661F771F881F91505040A9F7EF
S11312309E3F510580F00C946F080C94BA085F3FF0
S1131240E4F3983ED4F3869577956795B795F7952B
S1131250E7959F5FC1F7FE2B880F911D96958795A3
S113126097F90895DB018F939F930E949209BF9190
S1131270AF91A29F800D911DA39F900DB29F900DE1
S113128011240895A1E21A2EAA1BBB1BFD010DC057
S1131290AA1FBB1FEE1FFF1FA217B307E407F50722
S11312A020F0A21BB30BE40BF50B661F771F881FFE
S11312B0991F1A9469F760957095809590959B0194
S11312C0AC01BD01CF010895052E97FB1EF40094D7
S11312D00E947B0957FD07D00E94420907FC03D0F6
S11312E04EF40C947B0950954095309521953F4FD1
S11312F04F4F5F4F089590958095709561957F4FFE
S11313008F4F9F4F0895A29FB001B39FC001A39F29
S1131310700D811D1124911DB29F700D811D11242A
S1131320911D08950E948309A59F900DB49F900D6F
S1111330A49F800D911D11240895F894FFCF01
S113133E0000003F0000000000000000000000005C
S113134E000000009A99993E0AD7A33CCDCCCC3D1F
S10D135E0000000000000000010080
S9030000FC
